{
  "contractName": "DigitalBank",
  "abi": [
    {
      "constant": true,
      "inputs": [],
      "name": "name",
      "outputs": [
        {
          "name": "",
          "type": "string"
        }
      ],
      "payable": false,
      "stateMutability": "view",
      "type": "function",
      "signature": "0x06fdde03"
    },
    {
      "constant": true,
      "inputs": [
        {
          "name": "",
          "type": "address"
        }
      ],
      "name": "stakeBalance",
      "outputs": [
        {
          "name": "",
          "type": "uint256"
        }
      ],
      "payable": false,
      "stateMutability": "view",
      "type": "function",
      "signature": "0x4e7c57a6"
    },
    {
      "constant": true,
      "inputs": [
        {
          "name": "",
          "type": "address"
        }
      ],
      "name": "currentStakingStatus",
      "outputs": [
        {
          "name": "",
          "type": "bool"
        }
      ],
      "payable": false,
      "stateMutability": "view",
      "type": "function",
      "signature": "0x589e3294"
    },
    {
      "constant": true,
      "inputs": [],
      "name": "owner",
      "outputs": [
        {
          "name": "",
          "type": "address"
        }
      ],
      "payable": false,
      "stateMutability": "view",
      "type": "function",
      "signature": "0x8da5cb5b"
    },
    {
      "constant": true,
      "inputs": [],
      "name": "daiToken",
      "outputs": [
        {
          "name": "",
          "type": "address"
        }
      ],
      "payable": false,
      "stateMutability": "view",
      "type": "function",
      "signature": "0xbe22f546"
    },
    {
      "constant": true,
      "inputs": [
        {
          "name": "",
          "type": "address"
        }
      ],
      "name": "hasStaked",
      "outputs": [
        {
          "name": "",
          "type": "bool"
        }
      ],
      "payable": false,
      "stateMutability": "view",
      "type": "function",
      "signature": "0xc93c8f34"
    },
    {
      "constant": true,
      "inputs": [],
      "name": "prakToken",
      "outputs": [
        {
          "name": "",
          "type": "address"
        }
      ],
      "payable": false,
      "stateMutability": "view",
      "type": "function",
      "signature": "0xf00e3aba"
    },
    {
      "constant": true,
      "inputs": [
        {
          "name": "",
          "type": "uint256"
        }
      ],
      "name": "stakers",
      "outputs": [
        {
          "name": "",
          "type": "address"
        }
      ],
      "payable": false,
      "stateMutability": "view",
      "type": "function",
      "signature": "0xfd5e6dd1"
    },
    {
      "inputs": [
        {
          "name": "_daiToken",
          "type": "address"
        },
        {
          "name": "_prakToken",
          "type": "address"
        }
      ],
      "payable": false,
      "stateMutability": "nonpayable",
      "type": "constructor",
      "signature": "constructor"
    },
    {
      "constant": false,
      "inputs": [
        {
          "name": "_amount",
          "type": "uint256"
        }
      ],
      "name": "stakeTokens",
      "outputs": [],
      "payable": false,
      "stateMutability": "nonpayable",
      "type": "function",
      "signature": "0x7547c7a3"
    },
    {
      "constant": false,
      "inputs": [],
      "name": "unstakeTokens",
      "outputs": [],
      "payable": false,
      "stateMutability": "nonpayable",
      "type": "function",
      "signature": "0xa5ce413b"
    },
    {
      "constant": false,
      "inputs": [],
      "name": "issueTokens",
      "outputs": [],
      "payable": false,
      "stateMutability": "nonpayable",
      "type": "function",
      "signature": "0x60ab5852"
    }
  ],
  "bytecode": "0x60806040526040805190810160405280600c81526020017f4469676974616c2042616e6b00000000000000000000000000000000000000008152506000908051906020019061004f929190610161565b5034801561005c57600080fd5b506040516040806110508339810180604052604081101561007c57600080fd5b81019080805190602001909291908051906020019092919050505081600160006101000a81548173ffffffffffffffffffffffffffffffffffffffff021916908373ffffffffffffffffffffffffffffffffffffffff16021790555080600260006101000a81548173ffffffffffffffffffffffffffffffffffffffff021916908373ffffffffffffffffffffffffffffffffffffffff16021790555033600360006101000a81548173ffffffffffffffffffffffffffffffffffffffff021916908373ffffffffffffffffffffffffffffffffffffffff1602179055505050610206565b828054600181600116156101000203166002900490600052602060002090601f016020900481019282601f106101a257805160ff19168380011785556101d0565b828001600101855582156101d0579182015b828111156101cf5782518255916020019190600101906101b4565b5b5090506101dd91906101e1565b5090565b61020391905b808211156101ff5760008160009055506001016101e7565b5090565b90565b610e3b806102156000396000f3fe6080604052600436106100af576000357c0100000000000000000000000000000000000000000000000000000000900463ffffffff16806306fdde03146100b45780634e7c57a614610144578063589e3294146101a957806360ab5852146102125780637547c7a3146102295780638da5cb5b14610264578063a5ce413b146102bb578063be22f546146102d2578063c93c8f3414610329578063f00e3aba14610392578063fd5e6dd1146103e9575b600080fd5b3480156100c057600080fd5b506100c9610464565b6040518080602001828103825283818151815260200191508051906020019080838360005b838110156101095780820151818401526020810190506100ee565b50505050905090810190601f1680156101365780820380516001836020036101000a031916815260200191505b509250505060405180910390f35b34801561015057600080fd5b506101936004803603602081101561016757600080fd5b81019080803573ffffffffffffffffffffffffffffffffffffffff169060200190929190505050610502565b6040518082815260200191505060405180910390f35b3480156101b557600080fd5b506101f8600480360360208110156101cc57600080fd5b81019080803573ffffffffffffffffffffffffffffffffffffffff16906020019092919050505061051a565b604051808215151515815260200191505060405180910390f35b34801561021e57600080fd5b5061022761053a565b005b34801561023557600080fd5b506102626004803603602081101561024c57600080fd5b81019080803590602001909291905050506107e4565b005b34801561027057600080fd5b50610279610b4b565b604051808273ffffffffffffffffffffffffffffffffffffffff1673ffffffffffffffffffffffffffffffffffffffff16815260200191505060405180910390f35b3480156102c757600080fd5b506102d0610b71565b005b3480156102de57600080fd5b506102e7610d65565b604051808273ffffffffffffffffffffffffffffffffffffffff1673ffffffffffffffffffffffffffffffffffffffff16815260200191505060405180910390f35b34801561033557600080fd5b506103786004803603602081101561034c57600080fd5b81019080803573ffffffffffffffffffffffffffffffffffffffff169060200190929190505050610d8b565b604051808215151515815260200191505060405180910390f35b34801561039e57600080fd5b506103a7610dab565b604051808273ffffffffffffffffffffffffffffffffffffffff1673ffffffffffffffffffffffffffffffffffffffff16815260200191505060405180910390f35b3480156103f557600080fd5b506104226004803603602081101561040c57600080fd5b8101908080359060200190929190505050610dd1565b604051808273ffffffffffffffffffffffffffffffffffffffff1673ffffffffffffffffffffffffffffffffffffffff16815260200191505060405180910390f35b60008054600181600116156101000203166002900480601f0160208091040260200160405190810160405280929190818152602001828054600181600116156101000203166002900480156104fa5780601f106104cf576101008083540402835291602001916104fa565b820191906000526020600020905b8154815290600101906020018083116104dd57829003601f168201915b505050505081565b60046020528060005260406000206000915090505481565b60066020528060005260406000206000915054906101000a900460ff1681565b600360009054906101000a900473ffffffffffffffffffffffffffffffffffffffff1673ffffffffffffffffffffffffffffffffffffffff163373ffffffffffffffffffffffffffffffffffffffff161415156105ff576040517f08c379a000000000000000000000000000000000000000000000000000000000815260040180806020018281038252600e8152602001807f4f6e6c7920666f72206f776e657200000000000000000000000000000000000081525060200191505060405180910390fd5b60008090505b6007805490508110156107e15760006004600060078481548110151561062757fe5b9060005260206000200160009054906101000a900473ffffffffffffffffffffffffffffffffffffffff1673ffffffffffffffffffffffffffffffffffffffff1673ffffffffffffffffffffffffffffffffffffffff16815260200190815260200160002054905060008111156107d357600260009054906101000a900473ffffffffffffffffffffffffffffffffffffffff1673ffffffffffffffffffffffffffffffffffffffff1663a9059cbb6007848154811015156106e557fe5b9060005260206000200160009054906101000a900473ffffffffffffffffffffffffffffffffffffffff16836040518363ffffffff167c0100000000000000000000000000000000000000000000000000000000028152600401808373ffffffffffffffffffffffffffffffffffffffff1673ffffffffffffffffffffffffffffffffffffffff16815260200182815260200192505050602060405180830381600087803b15801561079657600080fd5b505af11580156107aa573d6000803e3d6000fd5b505050506040513d60208110156107c057600080fd5b8101908080519060200190929190505050505b508080600101915050610605565b50565b60008111151561085c576040517f08c379a000000000000000000000000000000000000000000000000000000000815260040180806020018281038252601c8152602001807f416d6f756e74206d75737420626520677265617465207468616e20300000000081525060200191505060405180910390fd5b600160009054906101000a900473ffffffffffffffffffffffffffffffffffffffff1673ffffffffffffffffffffffffffffffffffffffff166323b872dd3330846040518463ffffffff167c0100000000000000000000000000000000000000000000000000000000028152600401808473ffffffffffffffffffffffffffffffffffffffff1673ffffffffffffffffffffffffffffffffffffffff1681526020018373ffffffffffffffffffffffffffffffffffffffff1673ffffffffffffffffffffffffffffffffffffffff1681526020018281526020019350505050602060405180830381600087803b15801561095557600080fd5b505af1158015610969573d6000803e3d6000fd5b505050506040513d602081101561097f57600080fd5b81019080805190602001909291905050505080600460003373ffffffffffffffffffffffffffffffffffffffff1673ffffffffffffffffffffffffffffffffffffffff16815260200190815260200160002060008282540192505081905550600560003373ffffffffffffffffffffffffffffffffffffffff1673ffffffffffffffffffffffffffffffffffffffff16815260200190815260200160002060009054906101000a900460ff161515610a985760073390806001815401808255809150509060018203906000526020600020016000909192909190916101000a81548173ffffffffffffffffffffffffffffffffffffffff021916908373ffffffffffffffffffffffffffffffffffffffff160217905550505b6001600560003373ffffffffffffffffffffffffffffffffffffffff1673ffffffffffffffffffffffffffffffffffffffff16815260200190815260200160002060006101000a81548160ff0219169083151502179055506001600660003373ffffffffffffffffffffffffffffffffffffffff1673ffffffffffffffffffffffffffffffffffffffff16815260200190815260200160002060006101000a81548160ff02191690831515021790555050565b600360009054906101000a900473ffffffffffffffffffffffffffffffffffffffff1681565b6000600460003373ffffffffffffffffffffffffffffffffffffffff1673ffffffffffffffffffffffffffffffffffffffff168152602001908152602001600020549050600081111515610bc457600080fd5b600160009054906101000a900473ffffffffffffffffffffffffffffffffffffffff1673ffffffffffffffffffffffffffffffffffffffff1663a9059cbb33836040518363ffffffff167c0100000000000000000000000000000000000000000000000000000000028152600401808373ffffffffffffffffffffffffffffffffffffffff1673ffffffffffffffffffffffffffffffffffffffff16815260200182815260200192505050602060405180830381600087803b158015610c8957600080fd5b505af1158015610c9d573d6000803e3d6000fd5b505050506040513d6020811015610cb357600080fd5b8101908080519060200190929190505050506000600660003373ffffffffffffffffffffffffffffffffffffffff1673ffffffffffffffffffffffffffffffffffffffff16815260200190815260200160002060006101000a81548160ff0219169083151502179055506000600460003373ffffffffffffffffffffffffffffffffffffffff1673ffffffffffffffffffffffffffffffffffffffff1681526020019081526020016000208190555050565b600160009054906101000a900473ffffffffffffffffffffffffffffffffffffffff1681565b60056020528060005260406000206000915054906101000a900460ff1681565b600260009054906101000a900473ffffffffffffffffffffffffffffffffffffffff1681565b600781815481101515610de057fe5b906000526020600020016000915054906101000a900473ffffffffffffffffffffffffffffffffffffffff168156fea165627a7a723058205437c147222f993210b95690585361a8dfd8304c0246192ac39ca89c3afc19b90029",
  "source": "// SPDX-License-Identifier: MIT\n// Digital bank - user can earn interest by depositing some amount\n\npragma solidity ^0.5.0;\n\nimport \"./DaiToken.sol\";\nimport \"./PrakToken.sol\";\n\ncontract DigitalBank {\n    string public name = \"Digital Bank\";\n    DaiToken public daiToken;\n    PrakToken public prakToken;\n    address public owner;\n\n    mapping(address => uint256) public stakeBalance;\n    mapping(address => bool) public hasStaked;\n    mapping(address => bool) public currentStakingStatus;\n    address[] public stakers;\n\n    modifier onlyOwner() {\n        require(msg.sender == owner, \"Only for owner\");\n        _;\n    }\n\n    constructor(DaiToken _daiToken, PrakToken _prakToken) public {\n        daiToken = _daiToken;\n        prakToken = _prakToken;\n        owner = msg.sender;\n    }\n\n    // Stake tokens\n    function stakeTokens(uint256 _amount) public {\n        require(_amount > 0, \"Amount must be greate than 0\");\n        daiToken.transferFrom(msg.sender, address(this), _amount);\n        stakeBalance[msg.sender] += _amount;\n\n        if (!hasStaked[msg.sender]) {\n            stakers.push(msg.sender);\n        }\n        hasStaked[msg.sender] = true;\n        currentStakingStatus[msg.sender] = true;\n        // daiToken.approve(msg.sender, _amount);\n    }\n\n    // Unstake tokens (Withdraw)\n    function unstakeTokens() public {\n        uint256 balance = stakeBalance[msg.sender];\n        require(balance > 0);\n        daiToken.transfer(msg.sender, balance);\n\n        // Resetting\n        currentStakingStatus[msg.sender] = false;\n        stakeBalance[msg.sender] = 0;\n    }\n\n    // Issue tokens\n    function issueTokens() public onlyOwner {\n        for (uint256 i = 0; i < stakers.length; i++) {\n            uint256 balance = stakeBalance[stakers[i]];\n            if (balance > 0) {\n                prakToken.transfer(stakers[i], balance);\n            }\n        }\n    }\n}\n",
  "sourcePath": "/Users/prakhar/Documents/Blockchain/Git/DefiDapp/src/contracts/DigitalBank.sol",
  "compiler": {
    "name": "solc",
    "version": "0.5.0+commit.1d4f565a.Emscripten.clang"
  },
  "schemaVersion": "3.0.2",
  "updatedAt": "2022-08-25T11:33:31.640Z",
  "devdoc": {
    "methods": {}
  },
  "userdoc": {
    "methods": {}
  }
}